{
  "_format": "hh-sol-artifact-1",
  "contractName": "GovernorContract",
  "sourceName": "contracts/governance_standard/GovernorContract.sol",
  "abi": [
    {
      "inputs": [
        {
          "internalType": "contract IVotes",
          "name": "_token",
          "type": "address"
        },
        {
          "internalType": "contract TimelockController",
          "name": "_timelock",
          "type": "address"
        },
        {
          "internalType": "uint256",
          "name": "_votingDelay",
          "type": "uint256"
        },
        {
          "internalType": "uint256",
          "name": "_votingPeriod",
          "type": "uint256"
        },
        {
          "internalType": "uint256",
          "name": "_quorumPercentage",
          "type": "uint256"
        }
      ],
      "stateMutability": "nonpayable",
      "type": "constructor"
    },
    {
      "anonymous": false,
      "inputs": [
        {
          "indexed": false,
          "internalType": "uint256",
          "name": "proposalId",
          "type": "uint256"
        }
      ],
      "name": "ProposalCanceled",
      "type": "event"
    },
    {
      "anonymous": false,
      "inputs": [
        {
          "indexed": false,
          "internalType": "uint256",
          "name": "proposalId",
          "type": "uint256"
        },
        {
          "indexed": false,
          "internalType": "address",
          "name": "proposer",
          "type": "address"
        },
        {
          "indexed": false,
          "internalType": "address[]",
          "name": "targets",
          "type": "address[]"
        },
        {
          "indexed": false,
          "internalType": "uint256[]",
          "name": "values",
          "type": "uint256[]"
        },
        {
          "indexed": false,
          "internalType": "string[]",
          "name": "signatures",
          "type": "string[]"
        },
        {
          "indexed": false,
          "internalType": "bytes[]",
          "name": "calldatas",
          "type": "bytes[]"
        },
        {
          "indexed": false,
          "internalType": "uint256",
          "name": "startBlock",
          "type": "uint256"
        },
        {
          "indexed": false,
          "internalType": "uint256",
          "name": "endBlock",
          "type": "uint256"
        },
        {
          "indexed": false,
          "internalType": "string",
          "name": "description",
          "type": "string"
        }
      ],
      "name": "ProposalCreated",
      "type": "event"
    },
    {
      "anonymous": false,
      "inputs": [
        {
          "indexed": false,
          "internalType": "uint256",
          "name": "proposalId",
          "type": "uint256"
        }
      ],
      "name": "ProposalExecuted",
      "type": "event"
    },
    {
      "anonymous": false,
      "inputs": [
        {
          "indexed": false,
          "internalType": "uint256",
          "name": "proposalId",
          "type": "uint256"
        },
        {
          "indexed": false,
          "internalType": "uint256",
          "name": "eta",
          "type": "uint256"
        }
      ],
      "name": "ProposalQueued",
      "type": "event"
    },
    {
      "anonymous": false,
      "inputs": [
        {
          "indexed": false,
          "internalType": "uint256",
          "name": "oldProposalThreshold",
          "type": "uint256"
        },
        {
          "indexed": false,
          "internalType": "uint256",
          "name": "newProposalThreshold",
          "type": "uint256"
        }
      ],
      "name": "ProposalThresholdSet",
      "type": "event"
    },
    {
      "anonymous": false,
      "inputs": [
        {
          "indexed": false,
          "internalType": "uint256",
          "name": "oldQuorumNumerator",
          "type": "uint256"
        },
        {
          "indexed": false,
          "internalType": "uint256",
          "name": "newQuorumNumerator",
          "type": "uint256"
        }
      ],
      "name": "QuorumNumeratorUpdated",
      "type": "event"
    },
    {
      "anonymous": false,
      "inputs": [
        {
          "indexed": false,
          "internalType": "address",
          "name": "oldTimelock",
          "type": "address"
        },
        {
          "indexed": false,
          "internalType": "address",
          "name": "newTimelock",
          "type": "address"
        }
      ],
      "name": "TimelockChange",
      "type": "event"
    },
    {
      "anonymous": false,
      "inputs": [
        {
          "indexed": true,
          "internalType": "address",
          "name": "voter",
          "type": "address"
        },
        {
          "indexed": false,
          "internalType": "uint256",
          "name": "proposalId",
          "type": "uint256"
        },
        {
          "indexed": false,
          "internalType": "uint8",
          "name": "support",
          "type": "uint8"
        },
        {
          "indexed": false,
          "internalType": "uint256",
          "name": "weight",
          "type": "uint256"
        },
        {
          "indexed": false,
          "internalType": "string",
          "name": "reason",
          "type": "string"
        }
      ],
      "name": "VoteCast",
      "type": "event"
    },
    {
      "anonymous": false,
      "inputs": [
        {
          "indexed": false,
          "internalType": "uint256",
          "name": "oldVotingDelay",
          "type": "uint256"
        },
        {
          "indexed": false,
          "internalType": "uint256",
          "name": "newVotingDelay",
          "type": "uint256"
        }
      ],
      "name": "VotingDelaySet",
      "type": "event"
    },
    {
      "anonymous": false,
      "inputs": [
        {
          "indexed": false,
          "internalType": "uint256",
          "name": "oldVotingPeriod",
          "type": "uint256"
        },
        {
          "indexed": false,
          "internalType": "uint256",
          "name": "newVotingPeriod",
          "type": "uint256"
        }
      ],
      "name": "VotingPeriodSet",
      "type": "event"
    },
    {
      "inputs": [],
      "name": "BALLOT_TYPEHASH",
      "outputs": [
        {
          "internalType": "bytes32",
          "name": "",
          "type": "bytes32"
        }
      ],
      "stateMutability": "view",
      "type": "function"
    },
    {
      "inputs": [],
      "name": "COUNTING_MODE",
      "outputs": [
        {
          "internalType": "string",
          "name": "",
          "type": "string"
        }
      ],
      "stateMutability": "pure",
      "type": "function"
    },
    {
      "inputs": [
        {
          "internalType": "uint256",
          "name": "proposalId",
          "type": "uint256"
        },
        {
          "internalType": "uint8",
          "name": "support",
          "type": "uint8"
        }
      ],
      "name": "castVote",
      "outputs": [
        {
          "internalType": "uint256",
          "name": "",
          "type": "uint256"
        }
      ],
      "stateMutability": "nonpayable",
      "type": "function"
    },
    {
      "inputs": [
        {
          "internalType": "uint256",
          "name": "proposalId",
          "type": "uint256"
        },
        {
          "internalType": "uint8",
          "name": "support",
          "type": "uint8"
        },
        {
          "internalType": "uint8",
          "name": "v",
          "type": "uint8"
        },
        {
          "internalType": "bytes32",
          "name": "r",
          "type": "bytes32"
        },
        {
          "internalType": "bytes32",
          "name": "s",
          "type": "bytes32"
        }
      ],
      "name": "castVoteBySig",
      "outputs": [
        {
          "internalType": "uint256",
          "name": "",
          "type": "uint256"
        }
      ],
      "stateMutability": "nonpayable",
      "type": "function"
    },
    {
      "inputs": [
        {
          "internalType": "uint256",
          "name": "proposalId",
          "type": "uint256"
        },
        {
          "internalType": "uint8",
          "name": "support",
          "type": "uint8"
        },
        {
          "internalType": "string",
          "name": "reason",
          "type": "string"
        }
      ],
      "name": "castVoteWithReason",
      "outputs": [
        {
          "internalType": "uint256",
          "name": "",
          "type": "uint256"
        }
      ],
      "stateMutability": "nonpayable",
      "type": "function"
    },
    {
      "inputs": [
        {
          "internalType": "address[]",
          "name": "targets",
          "type": "address[]"
        },
        {
          "internalType": "uint256[]",
          "name": "values",
          "type": "uint256[]"
        },
        {
          "internalType": "bytes[]",
          "name": "calldatas",
          "type": "bytes[]"
        },
        {
          "internalType": "bytes32",
          "name": "descriptionHash",
          "type": "bytes32"
        }
      ],
      "name": "execute",
      "outputs": [
        {
          "internalType": "uint256",
          "name": "",
          "type": "uint256"
        }
      ],
      "stateMutability": "payable",
      "type": "function"
    },
    {
      "inputs": [
        {
          "internalType": "address",
          "name": "account",
          "type": "address"
        },
        {
          "internalType": "uint256",
          "name": "blockNumber",
          "type": "uint256"
        }
      ],
      "name": "getVotes",
      "outputs": [
        {
          "internalType": "uint256",
          "name": "",
          "type": "uint256"
        }
      ],
      "stateMutability": "view",
      "type": "function"
    },
    {
      "inputs": [
        {
          "internalType": "uint256",
          "name": "proposalId",
          "type": "uint256"
        },
        {
          "internalType": "address",
          "name": "account",
          "type": "address"
        }
      ],
      "name": "hasVoted",
      "outputs": [
        {
          "internalType": "bool",
          "name": "",
          "type": "bool"
        }
      ],
      "stateMutability": "view",
      "type": "function"
    },
    {
      "inputs": [
        {
          "internalType": "address[]",
          "name": "targets",
          "type": "address[]"
        },
        {
          "internalType": "uint256[]",
          "name": "values",
          "type": "uint256[]"
        },
        {
          "internalType": "bytes[]",
          "name": "calldatas",
          "type": "bytes[]"
        },
        {
          "internalType": "bytes32",
          "name": "descriptionHash",
          "type": "bytes32"
        }
      ],
      "name": "hashProposal",
      "outputs": [
        {
          "internalType": "uint256",
          "name": "",
          "type": "uint256"
        }
      ],
      "stateMutability": "pure",
      "type": "function"
    },
    {
      "inputs": [],
      "name": "name",
      "outputs": [
        {
          "internalType": "string",
          "name": "",
          "type": "string"
        }
      ],
      "stateMutability": "view",
      "type": "function"
    },
    {
      "inputs": [
        {
          "internalType": "uint256",
          "name": "proposalId",
          "type": "uint256"
        }
      ],
      "name": "proposalDeadline",
      "outputs": [
        {
          "internalType": "uint256",
          "name": "",
          "type": "uint256"
        }
      ],
      "stateMutability": "view",
      "type": "function"
    },
    {
      "inputs": [
        {
          "internalType": "uint256",
          "name": "proposalId",
          "type": "uint256"
        }
      ],
      "name": "proposalEta",
      "outputs": [
        {
          "internalType": "uint256",
          "name": "",
          "type": "uint256"
        }
      ],
      "stateMutability": "view",
      "type": "function"
    },
    {
      "inputs": [
        {
          "internalType": "uint256",
          "name": "proposalId",
          "type": "uint256"
        }
      ],
      "name": "proposalSnapshot",
      "outputs": [
        {
          "internalType": "uint256",
          "name": "",
          "type": "uint256"
        }
      ],
      "stateMutability": "view",
      "type": "function"
    },
    {
      "inputs": [],
      "name": "proposalThreshold",
      "outputs": [
        {
          "internalType": "uint256",
          "name": "",
          "type": "uint256"
        }
      ],
      "stateMutability": "view",
      "type": "function"
    },
    {
      "inputs": [
        {
          "internalType": "uint256",
          "name": "proposalId",
          "type": "uint256"
        }
      ],
      "name": "proposalVotes",
      "outputs": [
        {
          "internalType": "uint256",
          "name": "againstVotes",
          "type": "uint256"
        },
        {
          "internalType": "uint256",
          "name": "forVotes",
          "type": "uint256"
        },
        {
          "internalType": "uint256",
          "name": "abstainVotes",
          "type": "uint256"
        }
      ],
      "stateMutability": "view",
      "type": "function"
    },
    {
      "inputs": [
        {
          "internalType": "address[]",
          "name": "targets",
          "type": "address[]"
        },
        {
          "internalType": "uint256[]",
          "name": "values",
          "type": "uint256[]"
        },
        {
          "internalType": "bytes[]",
          "name": "calldatas",
          "type": "bytes[]"
        },
        {
          "internalType": "string",
          "name": "description",
          "type": "string"
        }
      ],
      "name": "propose",
      "outputs": [
        {
          "internalType": "uint256",
          "name": "",
          "type": "uint256"
        }
      ],
      "stateMutability": "nonpayable",
      "type": "function"
    },
    {
      "inputs": [
        {
          "internalType": "address[]",
          "name": "targets",
          "type": "address[]"
        },
        {
          "internalType": "uint256[]",
          "name": "values",
          "type": "uint256[]"
        },
        {
          "internalType": "bytes[]",
          "name": "calldatas",
          "type": "bytes[]"
        },
        {
          "internalType": "bytes32",
          "name": "descriptionHash",
          "type": "bytes32"
        }
      ],
      "name": "queue",
      "outputs": [
        {
          "internalType": "uint256",
          "name": "",
          "type": "uint256"
        }
      ],
      "stateMutability": "nonpayable",
      "type": "function"
    },
    {
      "inputs": [
        {
          "internalType": "uint256",
          "name": "blockNumber",
          "type": "uint256"
        }
      ],
      "name": "quorum",
      "outputs": [
        {
          "internalType": "uint256",
          "name": "",
          "type": "uint256"
        }
      ],
      "stateMutability": "view",
      "type": "function"
    },
    {
      "inputs": [],
      "name": "quorumDenominator",
      "outputs": [
        {
          "internalType": "uint256",
          "name": "",
          "type": "uint256"
        }
      ],
      "stateMutability": "view",
      "type": "function"
    },
    {
      "inputs": [],
      "name": "quorumNumerator",
      "outputs": [
        {
          "internalType": "uint256",
          "name": "",
          "type": "uint256"
        }
      ],
      "stateMutability": "view",
      "type": "function"
    },
    {
      "inputs": [
        {
          "internalType": "address",
          "name": "target",
          "type": "address"
        },
        {
          "internalType": "uint256",
          "name": "value",
          "type": "uint256"
        },
        {
          "internalType": "bytes",
          "name": "data",
          "type": "bytes"
        }
      ],
      "name": "relay",
      "outputs": [],
      "stateMutability": "nonpayable",
      "type": "function"
    },
    {
      "inputs": [
        {
          "internalType": "uint256",
          "name": "newProposalThreshold",
          "type": "uint256"
        }
      ],
      "name": "setProposalThreshold",
      "outputs": [],
      "stateMutability": "nonpayable",
      "type": "function"
    },
    {
      "inputs": [
        {
          "internalType": "uint256",
          "name": "newVotingDelay",
          "type": "uint256"
        }
      ],
      "name": "setVotingDelay",
      "outputs": [],
      "stateMutability": "nonpayable",
      "type": "function"
    },
    {
      "inputs": [
        {
          "internalType": "uint256",
          "name": "newVotingPeriod",
          "type": "uint256"
        }
      ],
      "name": "setVotingPeriod",
      "outputs": [],
      "stateMutability": "nonpayable",
      "type": "function"
    },
    {
      "inputs": [
        {
          "internalType": "uint256",
          "name": "proposalId",
          "type": "uint256"
        }
      ],
      "name": "state",
      "outputs": [
        {
          "internalType": "enum IGovernor.ProposalState",
          "name": "",
          "type": "uint8"
        }
      ],
      "stateMutability": "view",
      "type": "function"
    },
    {
      "inputs": [
        {
          "internalType": "bytes4",
          "name": "interfaceId",
          "type": "bytes4"
        }
      ],
      "name": "supportsInterface",
      "outputs": [
        {
          "internalType": "bool",
          "name": "",
          "type": "bool"
        }
      ],
      "stateMutability": "view",
      "type": "function"
    },
    {
      "inputs": [],
      "name": "timelock",
      "outputs": [
        {
          "internalType": "address",
          "name": "",
          "type": "address"
        }
      ],
      "stateMutability": "view",
      "type": "function"
    },
    {
      "inputs": [],
      "name": "token",
      "outputs": [
        {
          "internalType": "contract IVotes",
          "name": "",
          "type": "address"
        }
      ],
      "stateMutability": "view",
      "type": "function"
    },
    {
      "inputs": [
        {
          "internalType": "uint256",
          "name": "newQuorumNumerator",
          "type": "uint256"
        }
      ],
      "name": "updateQuorumNumerator",
      "outputs": [],
      "stateMutability": "nonpayable",
      "type": "function"
    },
    {
      "inputs": [
        {
          "internalType": "contract TimelockController",
          "name": "newTimelock",
          "type": "address"
        }
      ],
      "name": "updateTimelock",
      "outputs": [],
      "stateMutability": "nonpayable",
      "type": "function"
    },
    {
      "inputs": [],
      "name": "version",
      "outputs": [
        {
          "internalType": "string",
          "name": "",
          "type": "string"
        }
      ],
      "stateMutability": "view",
      "type": "function"
    },
    {
      "inputs": [],
      "name": "votingDelay",
      "outputs": [
        {
          "internalType": "uint256",
          "name": "",
          "type": "uint256"
        }
      ],
      "stateMutability": "view",
      "type": "function"
    },
    {
      "inputs": [],
      "name": "votingPeriod",
      "outputs": [
        {
          "internalType": "uint256",
          "name": "",
          "type": "uint256"
        }
      ],
      "stateMutability": "view",
      "type": "function"
    },
    {
      "stateMutability": "payable",
      "type": "receive"
    }
  ],
  "bytecode": "0x6101606040523480156200001257600080fd5b5060405162005e1238038062005e128339818101604052810190620000389190620005cc565b83600486600161b2fa60006040518060400160405280601081526020017f476f7665726e6f72436f6e747261637400000000000000000000000000000000815250806200008a620001f760201b60201c565b60008280519060200120905060008280519060200120905060007f8b73c3c69bb8fe3d512ecc4cf759cc79239f7b179b0ffacaa9a75d522b39400f90508260e081815250508161010081815250504660a08181525050620000f38184846200023460201b60201c565b608081815250503073ffffffffffffffffffffffffffffffffffffffff1660c08173ffffffffffffffffffffffffffffffffffffffff1660601b815250508061012081815250505050505050806000908051906020019062000157929190620004d7565b50506200016a836200027060201b60201c565b6200017b82620002b760201b60201c565b6200018c816200034460201b60201c565b5050508073ffffffffffffffffffffffffffffffffffffffff166101408173ffffffffffffffffffffffffffffffffffffffff1660601b8152505050620001d9816200038b60201b60201c565b50620001eb816200042d60201b60201c565b505050505050620009d6565b60606040518060400160405280600181526020017f3100000000000000000000000000000000000000000000000000000000000000815250905090565b6000838383463060405160200162000251959493929190620006fc565b6040516020818303038152906040528051906020012090509392505050565b7fc565b045403dc03c2eea82b81a0465edad9e2e7fc4d97e11421c209da93d7a9360025482604051620002a59291906200079d565b60405180910390a18060028190555050565b60008111620002fd576040517f08c379a0000000000000000000000000000000000000000000000000000000008152600401620002f4906200077b565b60405180910390fd5b7f7e3f7f0708a84de9203036abaa450dccc85ad5ff52f78c170f3edb55cf5e882860035482604051620003329291906200079d565b60405180910390a18060038190555050565b7fccb45da8d5717e6c4544694297c4ba5cf151d455c9bb0ed4fc7a38411bc0546160045482604051620003799291906200079d565b60405180910390a18060048190555050565b6200039b620004ce60201b60201c565b811115620003e0576040517f08c379a0000000000000000000000000000000000000000000000000000000008152600401620003d79062000759565b60405180910390fd5b60006006549050816006819055507f0553476bf02ef2726e8ce5ced78d63e26e602e4a2257b1f559418e24b46339978183604051620004219291906200079d565b60405180910390a15050565b7f08f74ea46ef7894f65eabfb5e6e695de773a000b47c529ab559178069b226401600760009054906101000a900473ffffffffffffffffffffffffffffffffffffffff168260405162000482929190620006cf565b60405180910390a180600760006101000a81548173ffffffffffffffffffffffffffffffffffffffff021916908373ffffffffffffffffffffffffffffffffffffffff16021790555050565b60006064905090565b828054620004e5906200085f565b90600052602060002090601f01602090048101928262000509576000855562000555565b82601f106200052457805160ff191683800117855562000555565b8280016001018555821562000555579182015b828111156200055457825182559160200191906001019062000537565b5b50905062000564919062000568565b5090565b5b808211156200058357600081600090555060010162000569565b5090565b600081519050620005988162000988565b92915050565b600081519050620005af81620009a2565b92915050565b600081519050620005c681620009bc565b92915050565b600080600080600060a08688031215620005e557600080fd5b6000620005f58882890162000587565b955050602062000608888289016200059e565b94505060406200061b88828901620005b5565b93505060606200062e88828901620005b5565b92505060806200064188828901620005b5565b9150509295509295909350565b6200065981620007db565b82525050565b6200066a8162000803565b82525050565b60006200067f604383620007ca565b91506200068c82620008c4565b606082019050919050565b6000620006a6602783620007ca565b9150620006b38262000939565b604082019050919050565b620006c98162000855565b82525050565b6000604082019050620006e660008301856200064e565b620006f560208301846200064e565b9392505050565b600060a0820190506200071360008301886200065f565b6200072260208301876200065f565b6200073160408301866200065f565b620007406060830185620006be565b6200074f60808301846200064e565b9695505050505050565b60006020820190508181036000830152620007748162000670565b9050919050565b60006020820190508181036000830152620007968162000697565b9050919050565b6000604082019050620007b46000830185620006be565b620007c36020830184620006be565b9392505050565b600082825260208201905092915050565b6000620007e88262000835565b9050919050565b6000620007fc8262000835565b9050919050565b6000819050919050565b60006200081a82620007db565b9050919050565b60006200082e82620007ef565b9050919050565b600073ffffffffffffffffffffffffffffffffffffffff82169050919050565b6000819050919050565b600060028204905060018216806200087857607f821691505b602082108114156200088f576200088e62000895565b5b50919050565b7f4e487b7100000000000000000000000000000000000000000000000000000000600052602260045260246000fd5b7f476f7665726e6f72566f74657351756f72756d4672616374696f6e3a2071756f60008201527f72756d4e756d657261746f72206f7665722071756f72756d44656e6f6d696e6160208201527f746f720000000000000000000000000000000000000000000000000000000000604082015250565b7f476f7665726e6f7253657474696e67733a20766f74696e6720706572696f642060008201527f746f6f206c6f7700000000000000000000000000000000000000000000000000602082015250565b62000993816200080d565b81146200099f57600080fd5b50565b620009ad8162000821565b8114620009b957600080fd5b50565b620009c78162000855565b8114620009d357600080fd5b50565b60805160a05160c05160601c60e05161010051610120516101405160601c6153cd62000a45600039600081816117010152818161218c01526122960152600061251e015260006125600152600061253f01526000612474015260006124ca015260006124f301526153cd6000f3fe6080604052600436106101f25760003560e01c80637d5e81e21161010d578063c59057e4116100a0578063ea0217cf1161006f578063ea0217cf146107da578063eb9019d414610803578063ece40cc114610840578063f8ce560a14610869578063fc0c546a146108a657610238565b8063c59057e41461071c578063d33219b414610759578063dd4e2ba514610784578063deaaa7cc146107af57610238565b8063ab58fb8e116100dc578063ab58fb8e1461064e578063b58131b01461068b578063c01f9e37146106b6578063c28bc2fa146106f357610238565b80637d5e81e21461059257806397c3d334146105cf578063a7713a70146105fa578063a890c9101461062557610238565b80633bccf4fd1161018557806354fd4d501161015457806354fd4d50146104c457806356781388146104ef57806370b0f6601461052c5780637b3c71d31461055557610238565b80633bccf4fd146103ce5780633e4f49e61461040b5780634385963214610448578063544ffc9c1461048557610238565b8063160cbed7116101c1578063160cbed7146102f95780632656227d146103365780632d63f693146103665780633932abb1146103a357610238565b806301ffc9a71461023d57806302a251a31461027a57806306f3f9e6146102a557806306fdde03146102ce57610238565b36610238573073ffffffffffffffffffffffffffffffffffffffff166102166108d1565b73ffffffffffffffffffffffffffffffffffffffff161461023657600080fd5b005b600080fd5b34801561024957600080fd5b50610264600480360381019061025f9190613738565b6108e0565b604051610271919061417c565b60405180910390f35b34801561028657600080fd5b5061028f6108f2565b60405161029c9190614539565b60405180910390f35b3480156102b157600080fd5b506102cc60048036038101906102c7919061378a565b610901565b005b3480156102da57600080fd5b506102e3610989565b6040516102f091906142b7565b60405180910390f35b34801561030557600080fd5b50610320600480360381019061031b9190613578565b610a1b565b60405161032d9190614539565b60405180910390f35b610350600480360381019061034b9190613578565b610d3f565b60405161035d9190614539565b60405180910390f35b34801561037257600080fd5b5061038d6004803603810190610388919061378a565b610f0a565b60405161039a9190614539565b60405180910390f35b3480156103af57600080fd5b506103b8610f78565b6040516103c59190614539565b60405180910390f35b3480156103da57600080fd5b506103f560048036038101906103f091906138c0565b610f87565b6040516104029190614539565b60405180910390f35b34801561041757600080fd5b50610432600480360381019061042d919061378a565b611011565b60405161043f919061429c565b60405180910390f35b34801561045457600080fd5b5061046f600480360381019061046a91906137dc565b611023565b60405161047c919061417c565b60405180910390f35b34801561049157600080fd5b506104ac60048036038101906104a7919061378a565b61108e565b6040516104bb9392919061462d565b60405180910390f35b3480156104d057600080fd5b506104d96110c6565b6040516104e691906142b7565b60405180910390f35b3480156104fb57600080fd5b5061051660048036038101906105119190613818565b611103565b6040516105239190614539565b60405180910390f35b34801561053857600080fd5b50610553600480360381019061054e919061378a565b611134565b005b34801561056157600080fd5b5061057c60048036038101906105779190613854565b6111bc565b6040516105899190614539565b60405180910390f35b34801561059e57600080fd5b506105b960048036038101906105b49190613623565b611224565b6040516105c69190614539565b60405180910390f35b3480156105db57600080fd5b506105e461123c565b6040516105f19190614539565b60405180910390f35b34801561060657600080fd5b5061060f611245565b60405161061c9190614539565b60405180910390f35b34801561063157600080fd5b5061064c60048036038101906106479190613761565b61124f565b005b34801561065a57600080fd5b506106756004803603810190610670919061378a565b6112d7565b6040516106829190614539565b60405180910390f35b34801561069757600080fd5b506106a06113b3565b6040516106ad9190614539565b60405180910390f35b3480156106c257600080fd5b506106dd60048036038101906106d8919061378a565b6113c2565b6040516106ea9190614539565b60405180910390f35b3480156106ff57600080fd5b5061071a6004803603810190610715919061350c565b611430565b005b34801561072857600080fd5b50610743600480360381019061073e9190613578565b611502565b6040516107509190614539565b60405180910390f35b34801561076557600080fd5b5061076e61153e565b60405161077b9190613fd7565b60405180910390f35b34801561079057600080fd5b50610799611568565b6040516107a691906142b7565b60405180910390f35b3480156107bb57600080fd5b506107c46115a5565b6040516107d19190614197565b60405180910390f35b3480156107e657600080fd5b5061080160048036038101906107fc919061378a565b6115c9565b005b34801561080f57600080fd5b5061082a600480360381019061082591906134d0565b611651565b6040516108379190614539565b60405180910390f35b34801561084c57600080fd5b506108676004803603810190610862919061378a565b611665565b005b34801561087557600080fd5b50610890600480360381019061088b919061378a565b6116ed565b60405161089d9190614539565b60405180910390f35b3480156108b257600080fd5b506108bb6116ff565b6040516108c89190614281565b60405180910390f35b60006108db611723565b905090565b60006108eb8261174d565b9050919050565b60006108fc6117c7565b905090565b6109096108d1565b73ffffffffffffffffffffffffffffffffffffffff166109276117d1565b73ffffffffffffffffffffffffffffffffffffffff161461097d576040517f08c379a0000000000000000000000000000000000000000000000000000000008152600401610974906142f9565b60405180910390fd5b610986816117d9565b50565b60606000805461099890614bd5565b80601f01602080910402602001604051908101604052809291908181526020018280546109c490614bd5565b8015610a115780601f106109e657610100808354040283529160200191610a11565b820191906000526020600020905b8154815290600101906020018083116109f457829003601f168201915b5050505050905090565b600080610a2a86868686611502565b905060046007811115610a66577f4e487b7100000000000000000000000000000000000000000000000000000000600052602160045260246000fd5b610a6f82611011565b6007811115610aa7577f4e487b7100000000000000000000000000000000000000000000000000000000600052602160045260246000fd5b14610ae7576040517f08c379a0000000000000000000000000000000000000000000000000000000008152600401610ade90614499565b60405180910390fd5b6000600760009054906101000a900473ffffffffffffffffffffffffffffffffffffffff1673ffffffffffffffffffffffffffffffffffffffff1663f27a0c926040518163ffffffff1660e01b815260040160206040518083038186803b158015610b5157600080fd5b505afa158015610b65573d6000803e3d6000fd5b505050506040513d601f19601f82011682018060405250810190610b8991906137b3565b9050600760009054906101000a900473ffffffffffffffffffffffffffffffffffffffff1673ffffffffffffffffffffffffffffffffffffffff1663b1c5f4278888886000896040518663ffffffff1660e01b8152600401610bef95949392919061409e565b60206040518083038186803b158015610c0757600080fd5b505afa158015610c1b573d6000803e3d6000fd5b505050506040513d601f19601f82011682018060405250810190610c3f919061370f565b6008600084815260200190815260200160002081905550600760009054906101000a900473ffffffffffffffffffffffffffffffffffffffff1673ffffffffffffffffffffffffffffffffffffffff16638f2a0bb0888888600089876040518763ffffffff1660e01b8152600401610cbc96959493929190614106565b600060405180830381600087803b158015610cd657600080fd5b505af1158015610cea573d6000803e3d6000fd5b505050507f9a2e42fd6722813d69113e7d0079d3d940171428df7373df9c7f7617cfda2892828242610d1c91906148fe565b604051610d2a929190614604565b60405180910390a18192505050949350505050565b600080610d4e86868686611502565b90506000610d5b82611011565b905060046007811115610d97577f4e487b7100000000000000000000000000000000000000000000000000000000600052602160045260246000fd5b816007811115610dd0577f4e487b7100000000000000000000000000000000000000000000000000000000600052602160045260246000fd5b1480610e4c575060056007811115610e11577f4e487b7100000000000000000000000000000000000000000000000000000000600052602160045260246000fd5b816007811115610e4a577f4e487b7100000000000000000000000000000000000000000000000000000000600052602160045260246000fd5b145b610e8b576040517f08c379a0000000000000000000000000000000000000000000000000000000008152600401610e8290614499565b60405180910390fd5b600180600084815260200190815260200160002060020160006101000a81548160ff0219169083151502179055507f712ae1383f79ac853f8d882153778e0260ef8f03b504e2866e0593e04d2b291f82604051610ee89190614539565b60405180910390a1610efd828888888861186e565b8192505050949350505050565b6000610f67600160008481526020019081526020016000206000016040518060200160405290816000820160009054906101000a900467ffffffffffffffff1667ffffffffffffffff1667ffffffffffffffff1681525050611882565b67ffffffffffffffff169050919050565b6000610f82611890565b905090565b600080610fe8610fe07f150214d74d59b7d1e90c73fc22ef3d991dd0a76b046543d4d80ab92d2a50328f8989604051602001610fc593929190614205565b6040516020818303038152906040528051906020012061189a565b8686866118b4565b9050611005878288604051806020016040528060008152506118df565b91505095945050505050565b600061101c82611a7f565b9050919050565b60006005600084815260200190815260200160002060030160008373ffffffffffffffffffffffffffffffffffffffff1673ffffffffffffffffffffffffffffffffffffffff16815260200190815260200160002060009054906101000a900460ff16905092915050565b600080600080600560008681526020019081526020016000209050806000015481600101548260020154935093509350509193909250565b60606040518060400160405280600181526020017f3100000000000000000000000000000000000000000000000000000000000000815250905090565b60008061110e6117d1565b905061112b848285604051806020016040528060008152506118df565b91505092915050565b61113c6108d1565b73ffffffffffffffffffffffffffffffffffffffff1661115a6117d1565b73ffffffffffffffffffffffffffffffffffffffff16146111b0576040517f08c379a00000000000000000000000000000000000000000000000000000000081526004016111a7906142f9565b60405180910390fd5b6111b981611cbd565b50565b6000806111c76117d1565b905061121986828787878080601f016020809104026020016040519081016040528093929190818152602001838380828437600081840152601f19601f820116905080830192505050505050506118df565b915050949350505050565b600061123285858585611d02565b9050949350505050565b60006064905090565b6000600654905090565b6112576108d1565b73ffffffffffffffffffffffffffffffffffffffff166112756117d1565b73ffffffffffffffffffffffffffffffffffffffff16146112cb576040517f08c379a00000000000000000000000000000000000000000000000000000000081526004016112c2906142f9565b60405180910390fd5b6112d481612028565b50565b600080600760009054906101000a900473ffffffffffffffffffffffffffffffffffffffff1673ffffffffffffffffffffffffffffffffffffffff1663d45c443560086000868152602001908152602001600020546040518263ffffffff1660e01b81526004016113489190614197565b60206040518083038186803b15801561136057600080fd5b505afa158015611374573d6000803e3d6000fd5b505050506040513d601f19601f8201168201806040525081019061139891906137b3565b9050600181146113a857806113ab565b60005b915050919050565b60006113bd6120c7565b905090565b600061141f600160008481526020019081526020016000206001016040518060200160405290816000820160009054906101000a900467ffffffffffffffff1667ffffffffffffffff1667ffffffffffffffff1681525050611882565b67ffffffffffffffff169050919050565b6114386108d1565b73ffffffffffffffffffffffffffffffffffffffff166114566117d1565b73ffffffffffffffffffffffffffffffffffffffff16146114ac576040517f08c379a00000000000000000000000000000000000000000000000000000000081526004016114a3906142f9565b60405180910390fd5b6114fb8483838080601f016020809104026020016040519081016040528093929190818152602001838380828437600081840152601f19601f82011690508083019250505050505050856120d1565b5050505050565b60008484848460405160200161151b9493929190614044565b6040516020818303038152906040528051906020012060001c9050949350505050565b6000600760009054906101000a900473ffffffffffffffffffffffffffffffffffffffff16905090565b60606040518060400160405280602081526020017f737570706f72743d627261766f2671756f72756d3d666f722c6162737461696e815250905090565b7f150214d74d59b7d1e90c73fc22ef3d991dd0a76b046543d4d80ab92d2a50328f81565b6115d16108d1565b73ffffffffffffffffffffffffffffffffffffffff166115ef6117d1565b73ffffffffffffffffffffffffffffffffffffffff1614611645576040517f08c379a000000000000000000000000000000000000000000000000000000000815260040161163c906142f9565b60405180910390fd5b61164e81612100565b50565b600061165d8383612188565b905092915050565b61166d6108d1565b73ffffffffffffffffffffffffffffffffffffffff1661168b6117d1565b73ffffffffffffffffffffffffffffffffffffffff16146116e1576040517f08c379a00000000000000000000000000000000000000000000000000000000081526004016116d8906142f9565b60405180910390fd5b6116ea8161223d565b50565b60006116f882612282565b9050919050565b7f000000000000000000000000000000000000000000000000000000000000000081565b6000600760009054906101000a900473ffffffffffffffffffffffffffffffffffffffff16905090565b60007f6e665ced000000000000000000000000000000000000000000000000000000007bffffffffffffffffffffffffffffffffffffffffffffffffffffffff1916827bffffffffffffffffffffffffffffffffffffffffffffffffffffffff191614806117c057506117bf82612358565b5b9050919050565b6000600354905090565b600033905090565b6117e161123c565b811115611823576040517f08c379a000000000000000000000000000000000000000000000000000000000815260040161181a90614319565b60405180910390fd5b60006006549050816006819055507f0553476bf02ef2726e8ce5ced78d63e26e602e4a2257b1f559418e24b46339978183604051611862929190614604565b60405180910390a15050565b61187b85858585856123d2565b5050505050565b600081600001519050919050565b6000600254905090565b60006118ad6118a7612470565b8361258a565b9050919050565b60008060006118c5878787876125bd565b915091506118d2816126ca565b8192505050949350505050565b60008060016000878152602001908152602001600020905060016007811115611931577f4e487b7100000000000000000000000000000000000000000000000000000000600052602160045260246000fd5b61193a87611011565b6007811115611972577f4e487b7100000000000000000000000000000000000000000000000000000000600052602160045260246000fd5b146119b2576040517f08c379a00000000000000000000000000000000000000000000000000000000081526004016119a990614419565b60405180910390fd5b6000611a1086611a01846000016040518060200160405290816000820160009054906101000a900467ffffffffffffffff1667ffffffffffffffff1667ffffffffffffffff1681525050611882565b67ffffffffffffffff16611651565b9050611a1e87878784612a1b565b8573ffffffffffffffffffffffffffffffffffffffff167fb8e138887d0aa13bab447e82de9d5c1777041ecd21ca36ba824ff1e6c07ddda488878488604051611a6a9493929190614664565b60405180910390a28092505050949350505050565b600080611a8b83612c93565b905060046007811115611ac7577f4e487b7100000000000000000000000000000000000000000000000000000000600052602160045260246000fd5b816007811115611b00577f4e487b7100000000000000000000000000000000000000000000000000000000600052602160045260246000fd5b14611b0e5780915050611cb8565b6000600860008581526020019081526020016000205490506000801b811415611b3b578192505050611cb8565b600760009054906101000a900473ffffffffffffffffffffffffffffffffffffffff1673ffffffffffffffffffffffffffffffffffffffff16632ab0f529826040518263ffffffff1660e01b8152600401611b969190614197565b60206040518083038186803b158015611bae57600080fd5b505afa158015611bc2573d6000803e3d6000fd5b505050506040513d601f19601f82011682018060405250810190611be691906136e6565b15611bf657600792505050611cb8565b600760009054906101000a900473ffffffffffffffffffffffffffffffffffffffff1673ffffffffffffffffffffffffffffffffffffffff1663584b153e826040518263ffffffff1660e01b8152600401611c519190614197565b60206040518083038186803b158015611c6957600080fd5b505afa158015611c7d573d6000803e3d6000fd5b505050506040513d601f19601f82011682018060405250810190611ca191906136e6565b15611cb157600592505050611cb8565b6002925050505b919050565b7fc565b045403dc03c2eea82b81a0465edad9e2e7fc4d97e11421c209da93d7a9360025482604051611cf0929190614604565b60405180910390a18060028190555050565b6000611d0c6113b3565b611d2233600143611d1d9190614a1d565b611651565b1015611d63576040517f08c379a0000000000000000000000000000000000000000000000000000000008152600401611d5a90614339565b60405180910390fd5b6000611d788686868680519060200120611502565b90508451865114611dbe576040517f08c379a0000000000000000000000000000000000000000000000000000000008152600401611db590614379565b60405180910390fd5b8351865114611e02576040517f08c379a0000000000000000000000000000000000000000000000000000000008152600401611df990614379565b60405180910390fd5b6000865111611e46576040517f08c379a0000000000000000000000000000000000000000000000000000000008152600401611e3d90614439565b60405180910390fd5b6000600160008381526020019081526020016000209050611ea6816000016040518060200160405290816000820160009054906101000a900467ffffffffffffffff1667ffffffffffffffff1667ffffffffffffffff1681525050612da8565b611ee5576040517f08c379a0000000000000000000000000000000000000000000000000000000008152600401611edc906144f9565b60405180910390fd5b6000611ef7611ef2610f78565b612dc2565b611f0043612dc2565b611f0a9190614954565b90506000611f1e611f196108f2565b612dc2565b82611f299190614954565b9050611f418284600001612e1990919063ffffffff16565b611f578184600101612e1990919063ffffffff16565b7f7d84a6263ae0d98d3329bd7b46bb4e8d6f98cd35a7adb45c274c8b7fd5ebd5e084611f816117d1565b8b8b8d5167ffffffffffffffff811115611fc4577f4e487b7100000000000000000000000000000000000000000000000000000000600052604160045260246000fd5b604051908082528060200260200182016040528015611ff757816020015b6060815260200190600190039081611fe25790505b508c88888e60405161201199989796959493929190614554565b60405180910390a183945050505050949350505050565b7f08f74ea46ef7894f65eabfb5e6e695de773a000b47c529ab559178069b226401600760009054906101000a900473ffffffffffffffffffffffffffffffffffffffff168260405161207b929190613ff2565b60405180910390a180600760006101000a81548173ffffffffffffffffffffffffffffffffffffffff021916908373ffffffffffffffffffffffffffffffffffffffff16021790555050565b6000600454905090565b60606120f784848460405180606001604052806029815260200161536f60299139612e48565b90509392505050565b60008111612143576040517f08c379a000000000000000000000000000000000000000000000000000000000815260040161213a90614399565b60405180910390fd5b7f7e3f7f0708a84de9203036abaa450dccc85ad5ff52f78c170f3edb55cf5e882860035482604051612176929190614604565b60405180910390a18060038190555050565b60007f000000000000000000000000000000000000000000000000000000000000000073ffffffffffffffffffffffffffffffffffffffff16633a46b1a884846040518363ffffffff1660e01b81526004016121e592919061401b565b60206040518083038186803b1580156121fd57600080fd5b505afa158015612211573d6000803e3d6000fd5b505050506040513d601f19601f8201168201806040525081019061223591906137b3565b905092915050565b7fccb45da8d5717e6c4544694297c4ba5cf151d455c9bb0ed4fc7a38411bc0546160045482604051612270929190614604565b60405180910390a18060048190555050565b600061228c61123c565b612294611245565b7f000000000000000000000000000000000000000000000000000000000000000073ffffffffffffffffffffffffffffffffffffffff16638e539e8c856040518263ffffffff1660e01b81526004016122ed9190614539565b60206040518083038186803b15801561230557600080fd5b505afa158015612319573d6000803e3d6000fd5b505050506040513d601f19601f8201168201806040525081019061233d91906137b3565b61234791906149c3565b6123519190614992565b9050919050565b60007fbf26d897000000000000000000000000000000000000000000000000000000007bffffffffffffffffffffffffffffffffffffffffffffffffffffffff1916827bffffffffffffffffffffffffffffffffffffffffffffffffffffffff191614806123cb57506123ca82612f5c565b5b9050919050565b600760009054906101000a900473ffffffffffffffffffffffffffffffffffffffff1673ffffffffffffffffffffffffffffffffffffffff1663e38335e5348686866000876040518763ffffffff1660e01b815260040161243795949392919061409e565b6000604051808303818588803b15801561245057600080fd5b505af1158015612464573d6000803e3d6000fd5b50505050505050505050565b60007f000000000000000000000000000000000000000000000000000000000000000073ffffffffffffffffffffffffffffffffffffffff163073ffffffffffffffffffffffffffffffffffffffff161480156124ec57507f000000000000000000000000000000000000000000000000000000000000000046145b15612519577f00000000000000000000000000000000000000000000000000000000000000009050612587565b6125847f00000000000000000000000000000000000000000000000000000000000000007f00000000000000000000000000000000000000000000000000000000000000007f0000000000000000000000000000000000000000000000000000000000000000612fc6565b90505b90565b6000828260405160200161259f929190613fa0565b60405160208183030381529060405280519060200120905092915050565b6000807f7fffffffffffffffffffffffffffffff5d576e7357a4501ddfe92f46681b20a08360001c11156125f85760006003915091506126c1565b601b8560ff16141580156126105750601c8560ff1614155b156126225760006004915091506126c1565b600060018787878760405160008152602001604052604051612647949392919061423c565b6020604051602081039080840390855afa158015612669573d6000803e3d6000fd5b505050602060405103519050600073ffffffffffffffffffffffffffffffffffffffff168173ffffffffffffffffffffffffffffffffffffffff1614156126b8576000600192509250506126c1565b80600092509250505b94509492505050565b60006004811115612704577f4e487b7100000000000000000000000000000000000000000000000000000000600052602160045260246000fd5b81600481111561273d577f4e487b7100000000000000000000000000000000000000000000000000000000600052602160045260246000fd5b141561274857612a18565b60016004811115612782577f4e487b7100000000000000000000000000000000000000000000000000000000600052602160045260246000fd5b8160048111156127bb577f4e487b7100000000000000000000000000000000000000000000000000000000600052602160045260246000fd5b14156127fc576040517f08c379a00000000000000000000000000000000000000000000000000000000081526004016127f3906142d9565b60405180910390fd5b60026004811115612836577f4e487b7100000000000000000000000000000000000000000000000000000000600052602160045260246000fd5b81600481111561286f577f4e487b7100000000000000000000000000000000000000000000000000000000600052602160045260246000fd5b14156128b0576040517f08c379a00000000000000000000000000000000000000000000000000000000081526004016128a790614359565b60405180910390fd5b600360048111156128ea577f4e487b7100000000000000000000000000000000000000000000000000000000600052602160045260246000fd5b816004811115612923577f4e487b7100000000000000000000000000000000000000000000000000000000600052602160045260246000fd5b1415612964576040517f08c379a000000000000000000000000000000000000000000000000000000000815260040161295b906143b9565b60405180910390fd5b60048081111561299d577f4e487b7100000000000000000000000000000000000000000000000000000000600052602160045260246000fd5b8160048111156129d6577f4e487b7100000000000000000000000000000000000000000000000000000000600052602160045260246000fd5b1415612a17576040517f08c379a0000000000000000000000000000000000000000000000000000000008152600401612a0e90614459565b60405180910390fd5b5b50565b60006005600086815260200190815260200160002090508060030160008573ffffffffffffffffffffffffffffffffffffffff1673ffffffffffffffffffffffffffffffffffffffff16815260200190815260200160002060009054906101000a900460ff1615612ac1576040517f08c379a0000000000000000000000000000000000000000000000000000000008152600401612ab8906143d9565b60405180910390fd5b60018160030160008673ffffffffffffffffffffffffffffffffffffffff1673ffffffffffffffffffffffffffffffffffffffff16815260200190815260200160002060006101000a81548160ff02191690831515021790555060006002811115612b55577f4e487b7100000000000000000000000000000000000000000000000000000000600052602160045260246000fd5b60ff168360ff161415612b825781816000016000828254612b7691906148fe565b92505081905550612c8c565b60016002811115612bbc577f4e487b7100000000000000000000000000000000000000000000000000000000600052602160045260246000fd5b60ff168360ff161415612be95781816001016000828254612bdd91906148fe565b92505081905550612c8b565b600280811115612c22577f4e487b7100000000000000000000000000000000000000000000000000000000600052602160045260246000fd5b60ff168360ff161415612c4f5781816002016000828254612c4391906148fe565b92505081905550612c8a565b6040517f08c379a0000000000000000000000000000000000000000000000000000000008152600401612c81906144d9565b60405180910390fd5b5b5b5050505050565b6000806001600084815260200190815260200160002090508060020160009054906101000a900460ff1615612ccc576007915050612da3565b8060020160019054906101000a900460ff1615612ced576002915050612da3565b6000612cf884610f0a565b90506000811415612d3e576040517f08c379a0000000000000000000000000000000000000000000000000000000008152600401612d35906144b9565b60405180910390fd5b438110612d5057600092505050612da3565b6000612d5b856113c2565b9050438110612d705760019350505050612da3565b612d7985613000565b8015612d8a5750612d8985613047565b5b15612d9b5760049350505050612da3565b600393505050505b919050565b600080826000015167ffffffffffffffff16149050919050565b600067ffffffffffffffff8016821115612e11576040517f08c379a0000000000000000000000000000000000000000000000000000000008152600401612e0890614479565b60405180910390fd5b819050919050565b808260000160006101000a81548167ffffffffffffffff021916908367ffffffffffffffff1602179055505050565b606082471015612e8d576040517f08c379a0000000000000000000000000000000000000000000000000000000008152600401612e84906143f9565b60405180910390fd5b612e9685613072565b612ed5576040517f08c379a0000000000000000000000000000000000000000000000000000000008152600401612ecc90614519565b60405180910390fd5b6000808673ffffffffffffffffffffffffffffffffffffffff168587604051612efe9190613f89565b60006040518083038185875af1925050503d8060008114612f3b576040519150601f19603f3d011682016040523d82523d6000602084013e612f40565b606091505b5091509150612f50828286613095565b92505050949350505050565b60007f01ffc9a7000000000000000000000000000000000000000000000000000000007bffffffffffffffffffffffffffffffffffffffffffffffffffffffff1916827bffffffffffffffffffffffffffffffffffffffffffffffffffffffff1916149050919050565b60008383834630604051602001612fe19594939291906141b2565b6040516020818303038152906040528051906020012090509392505050565b6000806005600084815260200190815260200160002090508060020154816001015461302c91906148fe565b61303d61303885610f0a565b6116ed565b1115915050919050565b6000806005600084815260200190815260200160002090508060000154816001015411915050919050565b6000808273ffffffffffffffffffffffffffffffffffffffff163b119050919050565b606083156130a5578290506130f5565b6000835111156130b85782518084602001fd5b816040517f08c379a00000000000000000000000000000000000000000000000000000000081526004016130ec91906142b7565b60405180910390fd5b9392505050565b600061310f61310a846146d5565b6146b0565b9050808382526020820190508285602086028201111561312e57600080fd5b60005b8581101561315e578161314488826132ad565b845260208401935060208301925050600181019050613131565b5050509392505050565b600061317b61317684614701565b6146b0565b9050808382526020820190508260005b858110156131bb57813585016131a188826133de565b84526020840193506020830192505060018101905061318b565b5050509392505050565b60006131d86131d38461472d565b6146b0565b905080838252602082019050828560208602820111156131f757600080fd5b60005b85811015613227578161320d8882613491565b8452602084019350602083019250506001810190506131fa565b5050509392505050565b600061324461323f84614759565b6146b0565b90508281526020810184848401111561325c57600080fd5b613267848285614b93565b509392505050565b600061328261327d8461478a565b6146b0565b90508281526020810184848401111561329a57600080fd5b6132a5848285614b93565b509392505050565b6000813590506132bc816152cd565b92915050565b600082601f8301126132d357600080fd5b81356132e38482602086016130fc565b91505092915050565b600082601f8301126132fd57600080fd5b813561330d848260208601613168565b91505092915050565b600082601f83011261332757600080fd5b81356133378482602086016131c5565b91505092915050565b60008151905061334f816152e4565b92915050565b600081359050613364816152fb565b92915050565b600081519050613379816152fb565b92915050565b60008135905061338e81615312565b92915050565b60008083601f8401126133a657600080fd5b8235905067ffffffffffffffff8111156133bf57600080fd5b6020830191508360018202830111156133d757600080fd5b9250929050565b600082601f8301126133ef57600080fd5b81356133ff848260208601613231565b91505092915050565b60008135905061341781615329565b92915050565b60008083601f84011261342f57600080fd5b8235905067ffffffffffffffff81111561344857600080fd5b60208301915083600182028301111561346057600080fd5b9250929050565b600082601f83011261347857600080fd5b813561348884826020860161326f565b91505092915050565b6000813590506134a081615340565b92915050565b6000815190506134b581615340565b92915050565b6000813590506134ca81615357565b92915050565b600080604083850312156134e357600080fd5b60006134f1858286016132ad565b925050602061350285828601613491565b9150509250929050565b6000806000806060858703121561352257600080fd5b6000613530878288016132ad565b945050602061354187828801613491565b935050604085013567ffffffffffffffff81111561355e57600080fd5b61356a87828801613394565b925092505092959194509250565b6000806000806080858703121561358e57600080fd5b600085013567ffffffffffffffff8111156135a857600080fd5b6135b4878288016132c2565b945050602085013567ffffffffffffffff8111156135d157600080fd5b6135dd87828801613316565b935050604085013567ffffffffffffffff8111156135fa57600080fd5b613606878288016132ec565b925050606061361787828801613355565b91505092959194509250565b6000806000806080858703121561363957600080fd5b600085013567ffffffffffffffff81111561365357600080fd5b61365f878288016132c2565b945050602085013567ffffffffffffffff81111561367c57600080fd5b61368887828801613316565b935050604085013567ffffffffffffffff8111156136a557600080fd5b6136b1878288016132ec565b925050606085013567ffffffffffffffff8111156136ce57600080fd5b6136da87828801613467565b91505092959194509250565b6000602082840312156136f857600080fd5b600061370684828501613340565b91505092915050565b60006020828403121561372157600080fd5b600061372f8482850161336a565b91505092915050565b60006020828403121561374a57600080fd5b60006137588482850161337f565b91505092915050565b60006020828403121561377357600080fd5b600061378184828501613408565b91505092915050565b60006020828403121561379c57600080fd5b60006137aa84828501613491565b91505092915050565b6000602082840312156137c557600080fd5b60006137d3848285016134a6565b91505092915050565b600080604083850312156137ef57600080fd5b60006137fd85828601613491565b925050602061380e858286016132ad565b9150509250929050565b6000806040838503121561382b57600080fd5b600061383985828601613491565b925050602061384a858286016134bb565b9150509250929050565b6000806000806060858703121561386a57600080fd5b600061387887828801613491565b9450506020613889878288016134bb565b935050604085013567ffffffffffffffff8111156138a657600080fd5b6138b28782880161341d565b925092505092959194509250565b600080600080600060a086880312156138d857600080fd5b60006138e688828901613491565b95505060206138f7888289016134bb565b9450506040613908888289016134bb565b935050606061391988828901613355565b925050608061392a88828901613355565b9150509295509295909350565b6000613943838361398f565b60208301905092915050565b600061395b8383613b88565b905092915050565b600061396f8383613c1f565b905092915050565b60006139838383613f4d565b60208301905092915050565b61399881614a51565b82525050565b6139a781614a51565b82525050565b60006139b8826147fb565b6139c28185614871565b93506139cd836147bb565b8060005b838110156139fe5781516139e58882613937565b97506139f08361483d565b9250506001810190506139d1565b5085935050505092915050565b6000613a1682614806565b613a208185614882565b935083602082028501613a32856147cb565b8060005b85811015613a6e5784840389528151613a4f858261394f565b9450613a5a8361484a565b925060208a01995050600181019050613a36565b50829750879550505050505092915050565b6000613a8b82614811565b613a958185614893565b935083602082028501613aa7856147db565b8060005b85811015613ae35784840389528151613ac48582613963565b9450613acf83614857565b925060208a01995050600181019050613aab565b50829750879550505050505092915050565b6000613b008261481c565b613b0a81856148a4565b9350613b15836147eb565b8060005b83811015613b46578151613b2d8882613977565b9750613b3883614864565b925050600181019050613b19565b5085935050505092915050565b613b5c81614a75565b82525050565b613b6b81614a81565b82525050565b613b82613b7d82614a81565b614c38565b82525050565b6000613b9382614827565b613b9d81856148b5565b9350613bad818560208601614ba2565b613bb681614d2d565b840191505092915050565b6000613bcc82614827565b613bd681856148c6565b9350613be6818560208601614ba2565b80840191505092915050565b613bfb81614b31565b82525050565b613c0a81614b55565b82525050565b613c1981614b67565b82525050565b6000613c2a82614832565b613c3481856148d1565b9350613c44818560208601614ba2565b613c4d81614d2d565b840191505092915050565b6000613c6382614832565b613c6d81856148e2565b9350613c7d818560208601614ba2565b613c8681614d2d565b840191505092915050565b6000613c9e6018836148e2565b9150613ca982614d4b565b602082019050919050565b6000613cc16018836148e2565b9150613ccc82614d74565b602082019050919050565b6000613ce46043836148e2565b9150613cef82614d9d565b606082019050919050565b6000613d076043836148e2565b9150613d1282614e12565b606082019050919050565b6000613d2a601f836148e2565b9150613d3582614e87565b602082019050919050565b6000613d4d6002836148f3565b9150613d5882614eb0565b600282019050919050565b6000613d706021836148e2565b9150613d7b82614ed9565b604082019050919050565b6000613d936027836148e2565b9150613d9e82614f28565b604082019050919050565b6000613db66022836148e2565b9150613dc182614f77565b604082019050919050565b6000613dd96027836148e2565b9150613de482614fc6565b604082019050919050565b6000613dfc6026836148e2565b9150613e0782615015565b604082019050919050565b6000613e1f6023836148e2565b9150613e2a82615064565b604082019050919050565b6000613e426018836148e2565b9150613e4d826150b3565b602082019050919050565b6000613e656022836148e2565b9150613e70826150dc565b604082019050919050565b6000613e886026836148e2565b9150613e938261512b565b604082019050919050565b6000613eab6021836148e2565b9150613eb68261517a565b604082019050919050565b6000613ece601d836148e2565b9150613ed9826151c9565b602082019050919050565b6000613ef16035836148e2565b9150613efc826151f2565b604082019050919050565b6000613f146021836148e2565b9150613f1f82615241565b604082019050919050565b6000613f37601d836148e2565b9150613f4282615290565b602082019050919050565b613f5681614b06565b82525050565b613f6581614b06565b82525050565b613f7481614b81565b82525050565b613f8381614b24565b82525050565b6000613f958284613bc1565b915081905092915050565b6000613fab82613d40565b9150613fb78285613b71565b602082019150613fc78284613b71565b6020820191508190509392505050565b6000602082019050613fec600083018461399e565b92915050565b6000604082019050614007600083018561399e565b614014602083018461399e565b9392505050565b6000604082019050614030600083018561399e565b61403d6020830184613f5c565b9392505050565b6000608082019050818103600083015261405e81876139ad565b905081810360208301526140728186613af5565b905081810360408301526140868185613a0b565b90506140956060830184613b62565b95945050505050565b600060a08201905081810360008301526140b881886139ad565b905081810360208301526140cc8187613af5565b905081810360408301526140e08186613a0b565b90506140ef6060830185613c10565b6140fc6080830184613b62565b9695505050505050565b600060c082019050818103600083015261412081896139ad565b905081810360208301526141348188613af5565b905081810360408301526141488187613a0b565b90506141576060830186613c10565b6141646080830185613b62565b61417160a0830184613f5c565b979650505050505050565b60006020820190506141916000830184613b53565b92915050565b60006020820190506141ac6000830184613b62565b92915050565b600060a0820190506141c76000830188613b62565b6141d46020830187613b62565b6141e16040830186613b62565b6141ee6060830185613f5c565b6141fb608083018461399e565b9695505050505050565b600060608201905061421a6000830186613b62565b6142276020830185613f5c565b6142346040830184613f7a565b949350505050565b60006080820190506142516000830187613b62565b61425e6020830186613f7a565b61426b6040830185613b62565b6142786060830184613b62565b95945050505050565b60006020820190506142966000830184613bf2565b92915050565b60006020820190506142b16000830184613c01565b92915050565b600060208201905081810360008301526142d18184613c58565b905092915050565b600060208201905081810360008301526142f281613c91565b9050919050565b6000602082019050818103600083015261431281613cb4565b9050919050565b6000602082019050818103600083015261433281613cd7565b9050919050565b6000602082019050818103600083015261435281613cfa565b9050919050565b6000602082019050818103600083015261437281613d1d565b9050919050565b6000602082019050818103600083015261439281613d63565b9050919050565b600060208201905081810360008301526143b281613d86565b9050919050565b600060208201905081810360008301526143d281613da9565b9050919050565b600060208201905081810360008301526143f281613dcc565b9050919050565b6000602082019050818103600083015261441281613def565b9050919050565b6000602082019050818103600083015261443281613e12565b9050919050565b6000602082019050818103600083015261445281613e35565b9050919050565b6000602082019050818103600083015261447281613e58565b9050919050565b6000602082019050818103600083015261449281613e7b565b9050919050565b600060208201905081810360008301526144b281613e9e565b9050919050565b600060208201905081810360008301526144d281613ec1565b9050919050565b600060208201905081810360008301526144f281613ee4565b9050919050565b6000602082019050818103600083015261451281613f07565b9050919050565b6000602082019050818103600083015261453281613f2a565b9050919050565b600060208201905061454e6000830184613f5c565b92915050565b60006101208201905061456a600083018c613f5c565b614577602083018b61399e565b8181036040830152614589818a6139ad565b9050818103606083015261459d8189613af5565b905081810360808301526145b18188613a80565b905081810360a08301526145c58187613a0b565b90506145d460c0830186613f6b565b6145e160e0830185613f6b565b8181036101008301526145f48184613c58565b90509a9950505050505050505050565b60006040820190506146196000830185613f5c565b6146266020830184613f5c565b9392505050565b60006060820190506146426000830186613f5c565b61464f6020830185613f5c565b61465c6040830184613f5c565b949350505050565b60006080820190506146796000830187613f5c565b6146866020830186613f7a565b6146936040830185613f5c565b81810360608301526146a58184613c58565b905095945050505050565b60006146ba6146cb565b90506146c68282614c07565b919050565b6000604051905090565b600067ffffffffffffffff8211156146f0576146ef614cfe565b5b602082029050602081019050919050565b600067ffffffffffffffff82111561471c5761471b614cfe565b5b602082029050602081019050919050565b600067ffffffffffffffff82111561474857614747614cfe565b5b602082029050602081019050919050565b600067ffffffffffffffff82111561477457614773614cfe565b5b61477d82614d2d565b9050602081019050919050565b600067ffffffffffffffff8211156147a5576147a4614cfe565b5b6147ae82614d2d565b9050602081019050919050565b6000819050602082019050919050565b6000819050602082019050919050565b6000819050602082019050919050565b6000819050602082019050919050565b600081519050919050565b600081519050919050565b600081519050919050565b600081519050919050565b600081519050919050565b600081519050919050565b6000602082019050919050565b6000602082019050919050565b6000602082019050919050565b6000602082019050919050565b600082825260208201905092915050565b600082825260208201905092915050565b600082825260208201905092915050565b600082825260208201905092915050565b600082825260208201905092915050565b600081905092915050565b600082825260208201905092915050565b600082825260208201905092915050565b600081905092915050565b600061490982614b06565b915061491483614b06565b9250827fffffffffffffffffffffffffffffffffffffffffffffffffffffffffffffffff0382111561494957614948614c42565b5b828201905092915050565b600061495f82614b10565b915061496a83614b10565b92508267ffffffffffffffff0382111561498757614986614c42565b5b828201905092915050565b600061499d82614b06565b91506149a883614b06565b9250826149b8576149b7614c71565b5b828204905092915050565b60006149ce82614b06565b91506149d983614b06565b9250817fffffffffffffffffffffffffffffffffffffffffffffffffffffffffffffffff0483118215151615614a1257614a11614c42565b5b828202905092915050565b6000614a2882614b06565b9150614a3383614b06565b925082821015614a4657614a45614c42565b5b828203905092915050565b6000614a5c82614ae6565b9050919050565b6000614a6e82614ae6565b9050919050565b60008115159050919050565b6000819050919050565b60007fffffffff0000000000000000000000000000000000000000000000000000000082169050919050565b6000614ac282614a63565b9050919050565b6000819050614ad7826152b9565b919050565b6000819050919050565b600073ffffffffffffffffffffffffffffffffffffffff82169050919050565b6000819050919050565b600067ffffffffffffffff82169050919050565b600060ff82169050919050565b6000614b3c82614b43565b9050919050565b6000614b4e82614ae6565b9050919050565b6000614b6082614ac9565b9050919050565b6000614b7a614b7583614adc565b614d3e565b9050919050565b6000614b8c82614b10565b9050919050565b82818337600083830152505050565b60005b83811015614bc0578082015181840152602081019050614ba5565b83811115614bcf576000848401525b50505050565b60006002820490506001821680614bed57607f821691505b60208210811415614c0157614c00614ccf565b5b50919050565b614c1082614d2d565b810181811067ffffffffffffffff82111715614c2f57614c2e614cfe565b5b80604052505050565b6000819050919050565b7f4e487b7100000000000000000000000000000000000000000000000000000000600052601160045260246000fd5b7f4e487b7100000000000000000000000000000000000000000000000000000000600052601260045260246000fd5b7f4e487b7100000000000000000000000000000000000000000000000000000000600052602160045260246000fd5b7f4e487b7100000000000000000000000000000000000000000000000000000000600052602260045260246000fd5b7f4e487b7100000000000000000000000000000000000000000000000000000000600052604160045260246000fd5b6000601f19601f8301169050919050565b60008160001b9050919050565b7f45434453413a20696e76616c6964207369676e61747572650000000000000000600082015250565b7f476f7665726e6f723a206f6e6c79476f7665726e616e63650000000000000000600082015250565b7f476f7665726e6f72566f74657351756f72756d4672616374696f6e3a2071756f60008201527f72756d4e756d657261746f72206f7665722071756f72756d44656e6f6d696e6160208201527f746f720000000000000000000000000000000000000000000000000000000000604082015250565b7f476f7665726e6f72436f6d7061746962696c697479427261766f3a2070726f7060008201527f6f73657220766f7465732062656c6f772070726f706f73616c2074687265736860208201527f6f6c640000000000000000000000000000000000000000000000000000000000604082015250565b7f45434453413a20696e76616c6964207369676e6174757265206c656e67746800600082015250565b7f1901000000000000000000000000000000000000000000000000000000000000600082015250565b7f476f7665726e6f723a20696e76616c69642070726f706f73616c206c656e677460008201527f6800000000000000000000000000000000000000000000000000000000000000602082015250565b7f476f7665726e6f7253657474696e67733a20766f74696e6720706572696f642060008201527f746f6f206c6f7700000000000000000000000000000000000000000000000000602082015250565b7f45434453413a20696e76616c6964207369676e6174757265202773272076616c60008201527f7565000000000000000000000000000000000000000000000000000000000000602082015250565b7f476f7665726e6f72566f74696e6753696d706c653a20766f746520616c72656160008201527f6479206361737400000000000000000000000000000000000000000000000000602082015250565b7f416464726573733a20696e73756666696369656e742062616c616e636520666f60008201527f722063616c6c0000000000000000000000000000000000000000000000000000602082015250565b7f476f7665726e6f723a20766f7465206e6f742063757272656e746c792061637460008201527f6976650000000000000000000000000000000000000000000000000000000000602082015250565b7f476f7665726e6f723a20656d7074792070726f706f73616c0000000000000000600082015250565b7f45434453413a20696e76616c6964207369676e6174757265202776272076616c60008201527f7565000000000000000000000000000000000000000000000000000000000000602082015250565b7f53616665436173743a2076616c756520646f65736e27742066697420696e203660008201527f3420626974730000000000000000000000000000000000000000000000000000602082015250565b7f476f7665726e6f723a2070726f706f73616c206e6f742073756363657373667560008201527f6c00000000000000000000000000000000000000000000000000000000000000602082015250565b7f476f7665726e6f723a20756e6b6e6f776e2070726f706f73616c206964000000600082015250565b7f476f7665726e6f72566f74696e6753696d706c653a20696e76616c696420766160008201527f6c756520666f7220656e756d20566f7465547970650000000000000000000000602082015250565b7f476f7665726e6f723a2070726f706f73616c20616c726561647920657869737460008201527f7300000000000000000000000000000000000000000000000000000000000000602082015250565b7f416464726573733a2063616c6c20746f206e6f6e2d636f6e7472616374000000600082015250565b600881106152ca576152c9614ca0565b5b50565b6152d681614a51565b81146152e157600080fd5b50565b6152ed81614a75565b81146152f857600080fd5b50565b61530481614a81565b811461530f57600080fd5b50565b61531b81614a8b565b811461532657600080fd5b50565b61533281614ab7565b811461533d57600080fd5b50565b61534981614b06565b811461535457600080fd5b50565b61536081614b24565b811461536b57600080fd5b5056fe416464726573733a206c6f772d6c6576656c2063616c6c20776974682076616c7565206661696c6564a2646970667358221220b1ad843bfbe1be54326a16b70f11280478a84ee6c37c01512dfa8b32cb93883d64736f6c63430008010033",
  "linkReferences": {},
  "deployedLinkReferences": {}
}